:1000000014C02EC02DC02CC02BC02AC07FC128C058
:1000100027C026C025C024C023C022C021C020C0C4
:100020001FC01EC01DC01CC01BC011241FBECFE5B9
:10003000D1E0DEBFCDBF10E0A0E6B0E0E2E6F4E044
:1000400002C005900D92A236B107D9F720E0A2E6D2
:10005000B0E001C01D92AE36B207E1F7FAD1FFC1A0
:10006000CFCFF89485B7806585BF86B18F6086B99C
:1000700085B7806285BF83E087B982E087B98AB798
:1000800080618ABF78948895F89485B78F7D85BF05
:1000900086B1807F86B9089590FF09C098B3662322
:1000A00011F0892B02C08095892388BB089591FFA8
:1000B00009C09BB3662311F0892B02C08095892368
:1000C0008BBB089592B3662311F0892B02C08095F3
:1000D000892382BB089590FF02C046B301C040B39C
:1000E00050E09C012423352381E0232B09F480E098
:1000F000089580916200809364008091630061E0C4
:10010000813019F488E091E007C0823019F484E06E
:1001100091E002C080E191E0BFCF60E08EE191E02C
:10012000BBCF8091640090916300909364008093B2
:10013000630008958091640090E001968170992792
:100140008093640008959091630080916400890F0A
:100150008170809364000895EF92FF920F931F9334
:10016000CF93DF93811108C0C1E0D2E090E2E92E85
:10017000F12C01E011E007C0C2E0D2E0EE24E394EC
:10018000F12C02E010E060E0CE0186DFC701A3DFC2
:10019000811131C0C8019FDF813031F46AE070E025
:1001A00080E090E023D1F2CF61E082E091E074DF63
:1001B00064E670E080E090E019D161E08091630036
:1001C000811160E0CE0168DF62E370E080E090E0E2
:1001D0000DD1C80180DF811109C02091640030E099
:1001E0002F5F3F4F217033272093640062E370E05C
:1001F00080E090E0FBD061E0CE014EDF60E082E085
:1002000091E0DF91CF911F910F91FF90EF9044CF3C
:10021000CF93DF93C82F61E082E091E03DDFD0E033
:10022000CE0159DF811106C062E370E080E090E00A
:10023000DDD0F6CF60E082E091E0DF91CF912CCF6E
:100240008AB383608ABB87B38E6187BBB89881B35A
:10025000807881BB82B38F6782BBC09A8BB3836087
:100260008BBB81E08093630010926400F8948BB79D
:1002700080618BBF85B18D6785B90895CF9364E1A7
:1002800070E080E090E0B2D080B3982F9D7790939B
:10029000600086FD1CC02DDF61E082E091E0FCDEA5
:1002A000C1E080E490E017DF81110BC062E370E0F1
:1002B00080E090E09BD0809162008C278093620068
:1002C000F0CF60E082E091E0E7DE27DF18C082FD3A
:1002D00003C027DF84E004C083FD04C02BDF88E077
:1002E00097DF0DC084FD03C02EDF80E1F9CF80FDD4
:1002F00002C081E003C085FD02C080E02DDF62E323
:1003000070E080E090E072D0CF91ABCE1F920F9260
:100310000FB60F9211242F933F938F939F93AF9318
:10032000BF938091660090916700A0916800B091A2
:1003300069003091650026E0230F2D3730F029E861
:10034000230F0396A11DB11D03C00296A11DB11D6F
:10035000209365008093660090936700A0936800E7
:10036000B093690080916A0090916B00A0916C003D
:10037000B0916D000196A11DB11D80936A0090930C
:100380006B00A0936C00B0936D00BF91AF919F91F3
:100390008F913F912F910F900FBE0F901F90189546
:1003A0003FB7F89480916A0090916B00A0916C0027
:1003B000B0916D0022B708B601FE05C02F3F19F0BD
:1003C0000196A11DB11D3FBFBA2FA92F982F8827D5
:1003D000820F911DA11DB11DBC01CD0143E0660F2F
:1003E000771F881F991F4A95D1F70895CF92DF9202
:1003F000EF92FF92CF93DF936B017C01D1DFEB0192
:10040000C114D104E104F10471F0CADF6C1B7D0B4F
:10041000683E7340A8F381E0C81AD108E108F108EA
:10042000C851DC4FEDCFDF91CF91FF90EF90DF907F
:10043000CF90089580B7826080BF80B7816080BF11
:1004400083B7887F826083BF789489B7826089BFD1
:10045000089581B781BFEEDFF3DE10DFFECFF894A1
:02046000FFCFCC
:020462007D001B
:00000001FF
